S013000070726F6A6563742D322E312E737265635C
S11300000C9434000C94F3060C9451000C9451009D
S11300100C9451000C9451000C9451000C94510018
S11300200C9451000C9451000C9451000C94510008
S11300300C9451000C9451000C9451000C945100F8
S11300400C9451000C9451000C9451000C945100E8
S11300500C9451000C9451000C9451000C945100D8
S11300600C9451000C94510011241FBECFEFD8E022
S1130070DEBFCDBF11E0A0E0B1E0E0E3F9E102C0F2
S113008005900D92A434B107D9F721E0A4E4B1E0BE
S113009001C01D92A035B207E1F70E94AC030C9495
S11300A0960C0C940000CF93DF9300D01F92CDB731
S11300B0DEB789837B836A8389818A3021F48DE06A
S11300C090E00E9417018981882F90E00E94170117
S11300D080E090E00F900F900F90DF91CF91089502
S11300E0CF93DF93CDB7DEB785EC90E0FC011082AF
S11300F084EC90E023E3FC01208380EC90E0FC019D
S1130100108281EC90E028E1FC01208382EC90E0F5
S113011026E0FC01208387E091E090934D018093D9
S11301204C010000DF91CF910895CF93DF93CDB7B9
S1130130DEB78AE290E02BEFFC01208384E290E0BA
S11301402FEFFC0120838DE390E021E0FC0120836C
S113015089E690E021E0FC01208380E890E0FC0146
S113016010820000DF91CF910895CF93DF9300D0E8
S11301701F92CDB7DEB78B838CE790E02B81FC0117
S113018020838CE790E02CE730E0F90120812064A3
S1130190FC0120838CE790E02CE730E0F90120811A
S11301A02F7DFC0120838AE790E02AE730E0F90103
S11301B020812760FC0120838AE790E02AE730E071
S11301C0F90120812068FC0120838AE790E02AE776
S11301D030E0F90120812064FC01208300008AE7DB
S11301E090E0FC018081882F90E080749927892B0E
S11301F0B1F788E790E0FC018081882F90E09A8332
S1130200898389E790E0FC018081882F90E0982F12
S1130210882729813A81820F931F9A838983898150
S11302209A810F900F900F90DF91CF910895CF9303
S1130230DF931F92CDB7DEB7898380EC90E0FC0199
S11302408081882F90E080729927892BB1F386EC06
S113025090E02981FC01208300000F90DF91CF9171
S11302600895CF93DF93CDB7DEB764970FB6F894B4
S1130270DEBF0FBECDBF209100013091010144E1EA
S1130280429FC001439F900D11249E838D8381E082
S113029090E09A8389831C821B828091440190910F
S11302A04501019709F0A4C0109245011092440140
S11302B091C089819A81019749F41A82198285E251
S11302C090E020910401FC0120830DC081E090E0C6
S11302D09A83898385E290E030910401209105019D
S11302E0230FFC0120838B819C8101969C838B834B
S11302F080E090E0AAEFB3E48F839887A987BA8758
S113030020E030E04AE753E46F81788589859A8557
S11303100E940E09DC01CB018B879C87AD87BE87C9
S113032020E030E040E85FE36B857C858D859E8529
S11303300E94AA0788232CF481E090E0988B8F8791
S11303403FC020E03FEF4FE757E46B857C858D8508
S11303509E850E94090918164CF520E030E040E221
S113036051E46F81788589859A850E940E09DC01A4
S1130370CB01BC01CD010E942808DC01CB01988B84
S11303808F870FC089E190E09A8B898B89899A893C
S11303900197F1F79A8B898B8F8598890197988BB0
S11303A08F878F859889892B69F714C06B857C8525
S11303B08D859E850E942808DC01CB01988B8F8750
S11303C08F8598899C8B8B8B8B899C890197F1F7FE
S11303D09C8B8B8B2B813C818D819E8128173907C7
S11303E00CF467CF85E290E020910401FC012083A6
S11303F0000064960FB6F894DEBF0FBECDBFDF9148
S1130400CF910895CF93DF93CDB7DEB764970FB63E
S1130410F894DEBF0FBECDBF2091000130910101E1
S113042044E1429FC001439F900D11249E838D831C
S113043081E090E09A8389831C821B82809144012D
S113044090914501892B09F0A6C081E090E090933A
S113045045018093440191C089819A81019749F4AF
S11304601A82198285E290E020910601FC01208322
S11304700DC081E090E09A83898385E290E0309119
S1130480060120910501230FFC0120838B819C81AF
S113049001969C838B8380E090E0AAEFB3E48F8382
S11304A09887A987BA8720E030E04AE753E46F8150
S11304B0788589859A850E940E09DC01CB018B879A
S11304C09C87AD87BE8720E030E040E85FE36B8522
S11304D07C858D859E850E94AA0788232CF481E063
S11304E090E0988B8F873FC020E03FEF4FE757E4C1
S11304F06B857C858D859E850E94090918164CF5AF
S113050020E030E040E251E46F81788589859A8566
S11305100E940E09DC01CB01BC01CD010E94280818
S1130520DC01CB01988B8F870FC089E190E09A8B17
S1130530898B89899A890197F1F79A8B898B8F85A1
S113054098890197988B8F878F859889892B69F76C
S113055014C06B857C858D859E850E942808DC01EE
S1130560CB01988B8F878F8598899C8B8B8B8B89FC
S11305709C890197F1F79C8B8B8B2B813C818D811E
S11305809E81281739070CF467CF85E290E020910B
S11305900601FC012083000064960FB6F894DEBFC8
S11305A00FBECDBFDF91CF910895CF93DF9300D0DD
S11305B000D0CDB7DEB79C838B831A82198210C01A
S11305C089819A819C012F5F3F4F3A8329839C0143
S11305D08B819C81820F931FFC0180810E941701F3
S11305E089819A812B813C81820F931FFC01808138
S11305F0882331F700000F900F900F900F90DF9138
S1130600CF910895CF93DF9300D0CDB7DEB79A830F
S1130610898389819A810E94D5028DE00E94170105
S11306208AE00E94170100000F900F90DF91CF9194
S11306300895CF93DF93CDB7DEB780EC90E0FC0153
S113064080818823D4F786EC90E0FC018081DF91DF
S1130650CF910895CF93DF93CDB7DEB728970FB628
S1130660F894DEBF0FBECDBF9D838C837F836E83E2
S113067048871A8219820E9419038B8388858823EC
S113068019F08B810E9417018B818D3039F4888594
S11306908823F1F08AE00E9417011AC08E819F819D
S11306A09C012150310989819A81821793071CF793
S11306B089819A819C012F5F3F4F3A8329839C0152
S11306C08C819D81820F931F2B81FC012083D3CFCA
S11306D0000089819A812C813D81820F931FFC0146
S11306E01082000028960FB6F894DEBF0FBECDBF6F
S11306F0DF91CF910895CF93DF93CDB7DEB766979F
S11307000FB6F894DEBF0FBECDBF9E8B8D8B8E8946
S11307108F938D898F9385E191E0892F8F9385E164
S113072091E08F93CE0101969F938F930E94AC0921
S11307300F900F900F900F900F900F90CE01019695
S11307400E94D502000066960FB6F894DEBF0FBE75
S1130750CDBFDF91CF9108950F931F93CF93DF9374
S1130760CDB7DEB7C756D1090FB6F894DEBF0FBEBA
S1130770CDBF0E9495000E9470008AE290E02BEFAA
S1130780FC01208384E290E02FEFFC01208385E2CA
S113079090E020910401FC0120831A82198288E1EF
S11307A091E00E940203CE01865B9F4F41E06EE11F
S11307B070E00E942A0380E090E0A8E4B2E48E8B0B
S11307C09F8BA88FB98F20E030E04AE753E46E890D
S11307D07F89888D998D0E940E09DC01CB018A8F57
S11307E09B8FAC8FBD8F20E030E040E85FE36A8DE3
S11307F07B8D8C8D9D8D0E94AA0788232CF481E02B
S113080090E09F8F8E8F3FC020E03FEF4FE757E48B
S11308106A8D7B8D8C8D9D8D0E94090918164CF56F
S113082020E030E040E251E46E897F89888D998D23
S11308300E940E09DC01CB01BC01CD010E942808F5
S1130840DC01CB019F8F8E8F0FC089E190E099A3CB
S113085088A388A199A10197F1F799A388A38E8D04
S11308609F8D01979F8F8E8F8E8D9F8D892B69F71A
S113087014C06A8D7B8D8C8D9D8D0E942808DC01AF
S1130880CB019F8F8E8F8E8D9F8D9BA38AA38AA170
S11308909BA10197F1F79BA38AA3CE01865B9F4F8F
S11308A064E271E00E94A309892B49F481E00E946B
S11308B0B50098878F838F8198850E947B03CE0132
S11308C0865B9F4F6AE271E00E94A309892B09F0BD
S11308D07DC083E00E94B5009A87898789859A85BF
S11308E0092E000CAA0BBB0BBC01CD010E945908B8
S11308F0DC01CB0120E030E040EA50E4BC01CD0152
S11309000E940E09DC01CB018B879C87AD87BE87D3
S113091020E030E040E854E46B857C858D859E853D
S11309200E94AF07DC01CB018B879C87AD87BE8714
S113093020E030E040E05FE36B857C858D859E851B
S11309400E943D07DC01CB0120E030E048EC52E49A
S1130950BC01CD010E940E09DC01CB0120E030E096
S113096040E251E4BC01CD010E94AF07DC01CB01A0
S1130970BC01CD010E942108DC01CB01988B8F873B
S11309808F8598890E947B038FE291E00E94020385
S113099089859A85092E000CAA0BBB0BBC01CD01DD
S11309A00E945908DC01CB0120E030E040EA50E429
S11309B0BC01CD010E940E09DC01CB01BC01CD01BB
S11309C00E942108DC01CB010E947B03CE01865BDF
S11309D09F4F60E371E00E94A309892B09F0E4C1F1
S11309E085E290E0FC018081898B789485E290E037
S11309F025E230E0F90120812260FC01208380910E
S1130A00020190910301092E000CAA0BBB0BBC013F
S1130A10CD010E945908DC01CB018A8B9B8BAC8BE6
S1130A20BD8B2BEA3AEA4AEA5EE36A897B898C89C0
S1130A309D890E940E09DC01CB018EA79FA7A8AB5C
S1130A40B9AB20E030E040E85EE36A897B898C89B9
S1130A509D890E940E09DC01CB018AAB9BABACAB38
S1130A60BDAB20E030E040E85FE36EA57FA588A938
S1130A7099A90E94AA0788231CF481E08EABF9C0CF
S1130A8020E03FEF4FE757E46AA97BA98CA99DA911
S1130A900E94090918160CF0AEC020E030E04AE7C5
S1130AA054E46A897B898C899D890E94AF07DC01A3
S1130AB0CB018FAB98AFA9AFBAAF20E030E04AE7E3
S1130AC053E46FA978AD89AD9AAD0E940E09DC019B
S1130AD0CB018BAF9CAFADAFBEAF20E030E040E8C0
S1130AE05FE36BAD7CAD8DAD9EAD0E94AA078823FC
S1130AF044F421E030E0CE01CF96FC013183208321
S1130B005FC020E03FEF4FE757E46BAD7CAD8DADA8
S1130B109EAD0E94090918160CF044C020E030E094
S1130B2040E251E46FA978AD89AD9AAD0E940E09F7
S1130B30DC01CB01BC01CD010E942808DC01CB0102
S1130B409E01215C3F4FF9019183808323C0CE0134
S1130B508F5B9F4F29E130E0FC0131832083CE017C
S1130B608F5B9F4FFC01808191810197F1F79E017A
S1130B702F5B3F4FF90191838083CE01CF96FC0117
S1130B80808191819C0121503109CE01CF96FC01D5
S1130B9031832083CE01CF96FC0180819181892B02
S1130BA0B1F667C06BAD7CAD8DAD9EAD0E942808DB
S1130BB0DC01CB019E01215C3F4FF90191838083CD
S1130BC0CE018D5B9F4F9E01215C3F4FF901208137
S1130BD03181FC0131832083CE018D5B9F4FFC0169
S1130BE0808191810197F1F79E012D5B3F4FF901BF
S1130BF0918380833EC020E030E04FE753E46EA54C
S1130C007FA588A999A90E94090918164CF58E0197
S1130C100B5B1F4F6AA97BA98CA99DA90E94280878
S1130C20DC01CB01F80191838083CE01895B9F4F66
S1130C309E012B5B3F4FF90120813181FC013183FF
S1130C402083CE01895B9F4FFC01808191810197B4
S1130C50F1F79E01295B3F4FF901918380831CC00A
S1130C606EA57FA588A999A90E942808DC01CB015B
S1130C708EABCE01875B9F4F2EA9FC012083CE0152
S1130C80875B9F4FFC018081282F2A95F1F7CE01C5
S1130C90875B9F4FFC01208385E290E02989FC015A
S1130CA0208380E090E0A8ECB2E48B839C83AD8346
S1130CB0BE8320E030E04AE753E46B817C818D8180
S1130CC09E810E940E09DC01CB018CA39DA3AEA3DF
S1130CD0BFA320E030E040E85FE36CA17DA18EA1DA
S1130CE09FA10E94AA0788232CF481E090E099A791
S1130CF088A73FC020E03FEF4FE757E46CA17DA1F8
S1130D008EA19FA10E94090918164CF520E030E03D
S1130D1040E251E46B817C818D819E810E940E09A9
S1130D20DC01CB01BC01CD010E942808DC01CB0110
S1130D3099A788A70FC089E190E09BA78AA78AA5F5
S1130D409BA50197F1F79BA78AA788A599A5019769
S1130D5099A788A788A599A5892B69F714C06CA1C0
S1130D607DA18EA19FA10E942808DC01CB0199A737
S1130D7088A788A599A59DA78CA78CA59DA5019753
S1130D80F1F79DA78CA7F8948091460190914701B3
S1130D9028EE33E0B9010E947B09CB019A83898351
S1130DA089819A810E947B03CE01865B9F4F69E310
S1130DB071E00E94A309892B11F40E940202CE0162
S1130DC0865B9F4F6EE371E00E94A309892B11F4A7
S1130DD00E9431018FE291E00E94020381E491E0DC
S1130DE00E940203E0CC1F920F9200905F000F92CA
S1130DF011242F938F939F93EF93FF93CF93DF93BC
S1130E00CDB7DEB780914801909149010197B1F4C3
S1130E1081E890E0FC01108284E890E0FC0180818C
S1130E209181909347018093460184E890E0FC010E
S1130E301182108210924901109248018091480158
S1130E4090914901892B59F481E890E021E0FC015B
S1130E50208381E090E09093490180934801000051
S1130E60DF91CF91FF91EF919F918F912F910F90EF
S1130E7000925F000F901F9018955058BB27AA2727
S1130E800E9455070C94CF080E94C10838F00E94B4
S1130E90C80820F039F49F3F19F426F40C94BE08D6
S1130EA00EF4E095E7FB0C94B808E92F0E94E008E3
S1130EB058F3BA17620773078407950720F079F48B
S1130EC0A6F50C9402090EF4E0950B2EBA2FA02D72
S1130ED00B01B90190010C01CA01A0011124FF27E3
S1130EE0591B99F0593F50F4503E68F11A16F040DE
S1130EF0A22F232F342F4427585FF3CF46953795DD
S1130F002795A795F0405395C9F77EF41F16BA0BA1
S1130F10620B730B840BBAF09150A1F0FF0FBB1F4F
S1130F20661F771F881FC2F70EC0BA0F621F731F98
S1130F30841F48F4879577956795B795F7959E3FF5
S1130F4008F0B0CF9395880F08F09927EE0F979586
S1130F50879508950E94940808F481E008950E94FA
S1130F60C3070C94CF080E94C80858F00E94C10817
S1130F7040F029F45F3F29F00C94B80851110C9407
S1130F8003090C94BE080E94E00868F39923B1F3A6
S1130F90552391F3951B550BBB27AA27621773079B
S1130FA0840738F09F5F5F4F220F331F441FAA1F2F
S1130FB0A9F335D00E2E3AF0E0E832D091505040EB
S1130FC0E695001CCAF72BD0FE2F29D0660F771F99
S1130FD0881FBB1F261737074807AB07B0E809F07F
S1130FE0BB0B802DBF01FF2793585F4F3AF09E3F04
S1130FF0510578F00C94B8080C9403095F3FE4F3AE
S1131000983ED4F3869577956795B795F7959F5F46
S1131010C9F7880F911D9695879597F90895E1E092
S1131020660F771F881FBB1F621773078407BA07F1
S113103020F0621B730B840BBA0BEE1F88F7E0954C
S113104008950E9428086894B1110C940309089526
S11310500E94E80888F09F5798F0B92F9927B75154
S1131060B0F0E1F0660F771F881F991F1AF0BA9548
S1131070C9F714C0B13091F00E940209B1E008959B
S11310800C940209672F782F8827B85F39F0B93F8D
S1131090CCF3869577956795B395D9F73EF49095FB
S11310A08095709561957F4F8F4F9F4F0895E89479
S11310B009C097FB3EF490958095709561957F4F9C
S11310C08F4F9F4F9923A9F0F92F96E9BB2793954A
S11310D0F695879577956795B795F111F8CFFAF45A
S11310E0BB0F11F460FF1BC06F5F7F4F8F4F9F4F8B
S11310F016C0882311F096E911C0772321F09EE8E9
S1131100872F762F05C0662371F096E8862F70E04E
S113111060E02AF09A95660F771F881FDAF7880F28
S11311209695879597F90895990F0008550FAA0B7E
S1131130E0E8FEEF16161706E807F907C0F01216E6
S11311401306E407F50798F0621B730B840B950BE9
S113115039F40A2661F0232B242B252B21F408953E
S11311600A2609F4A140A6958FEF811D811D0895DB
S113117097F99F6780E870E060E008959FEF80EC46
S1131180089500240A9416161706180609060895E9
S113119000240A9412161306140605060895092E4F
S11311A00394000C11F4882352F0BB0F40F4BF2BBE
S11311B011F460FF04C06F5F7F4F8F4F9F4F0895FE
S11311C057FD9058440F551F59F05F3F71F04795F4
S11311D0880F97FB991F61F09F3F79F087950895D9
S11311E0121613061406551FF2CF4695F1DF08C0F8
S11311F0161617061806991FF1CF86957105610515
S113120008940895E894BB2766277727CB0197F9BC
S113121008950E94940808F48FEF08950E9421090C
S11312200C94CF080E94C10838F00E94C80820F02E
S1131230952311F00C94B8080C94BE0811240C9456
S113124003090E94E00870F3959FC1F3950F50E0E5
S1131250551F629FF001729FBB27F00DB11D639F64
S1131260AA27F00DB11DAA1F649F6627B00DA11D0A
S1131270661F829F2227B00DA11D621F739FB00DB0
S1131280A11D621F839FA00D611D221F749F332720
S1131290A00D611D231F849F600D211D822F762FB9
S11312A06A2F11249F5750409AF0F1F088234AF096
S11312B0EE0FFF1FBB1F661F771F881F9150504002
S11312C0A9F79E3F510580F00C94B8080C940309CB
S11312D05F3FE4F3983ED4F3869577956795B79589
S11312E0F795E7959F5FC1F7FE2B880F911D9695A3
S11312F0879597F9089597FB072E16F4009407D065
S113130077FD09D00E948F0907FC05D03EF4909523
S113131081959F4F0895709561957F4F0895AA1BFD
S1131320BB1B51E107C0AA1FBB1FA617B70710F0CC
S1131330A61BB70B881F991F5A95A9F780959095FE
S1131340BC01CD010895FB01DC018D910190801950
S11313500110D9F3990B0895AEE0B0E0E2EBF9E0A7
S11313600C946D0C0D891E8986E08C831A83098385
S11313708FEF9FE79E838D83AE01475E5F4F6F893A
S1131380788DCE0101960E94CE09EF81F885E00F99
S1131390F11F10822E96E4E00C94890CABE0B0E0CF
S11313A0E4EDF9E00C945F0C6C017B018A01FC0113
S11313B017821682838181FFCCC1CE0101963C0144
S11313C0F6019381F70193FD859193FF81917F014C
S11313D0882309F4BAC1853239F493FD859193FFCA
S11313E081917F01853229F4B60190E00E94C50BFA
S11313F0E7CF912C212C312CFFE1F315D8F08B325F
S113140079F038F4803279F08332A1F4232D20610D
S11314101DC08D3261F0803369F4232D216016C024
S1131420832D8260382EE32DE4603E2E2AC0F32DF6
S1131430F8601DC037FC2DC020ED280F2A3040F085
S11314408E32B9F436FC81C1232D2064322E19C0AA
S113145036FE06C08AE0989E200D1124922E11C0FB
S1131460EAE02E9E200D1124222EF32DF0623F2E51
S113147008C08C3621F4832D8068382E02C088364B
S113148041F4F70193FD859193FF81917F018111CF
S1131490B3CF982F9F7D9554933028F40C5F1F4F42
S11314A09FE399830DC0833631F0833771F0833520
S11314B009F059C021C0F801808189830E5F1F4F54
S11314C088248394912C530113C02801F2E04F0E19
S11314D0511CF801A080B18036FE03C0692D70E074
S11314E002C06FEF7FEFC5010E94BA0B4C0182016D
S11314F0F32DFF773F2E16C0280122E0420E511C27
S1131500F801A080B18036FE03C0692D70E002C0EE
S11315106FEF7FEFC5010E94AF0B4C01F32DF06814
S11315203F2E820133FC1BC0822D90E08816990661
S1131530B0F4B60180E290E00E94C50B2A94F4CF87
S1131540F50137FC859137FE81915F01B60190E08A
S11315500E94C50B21102A9421E0821A910881145B
S1131560910471F7E8C0843611F0893641F5F80129
S113157037FE07C060817181828193810C5F1F4FA8
S113158008C060817181072E000C880B990B0E5FD7
S11315901F4FF32DFF763F2E97FF09C0909580953E
S11315A0709561957F4F8F4F9F4FF0683F2E2AE0D3
S11315B030E0A3010E94010C882E861845C08537AF
S11315C031F4232D2F7EB22E2AE030E025C0932D56
S11315D0997FB92E8F36C1F018F4883579F0B5C0EB
S11315E0803719F0883721F0B0C0E92FE061BE2EB2
S11315F0B4FE0DC0FB2DF460BF2E09C034FE0AC03A
S1131600292F2660B22E06C028E030E005C020E174
S113161030E002C020E132E0F801B7FE07C060818B
S11316207181828193810C5F1F4F06C0608171813B
S113163080E090E00E5F1F4FA3010E94010C882EF2
S11316408618FB2DFF773F2E36FE0DC0232D2E7FEF
S1131650A22E891458F434FE0BC032FC09C0832D29
S11316608E7EA82E05C0B82CA32C03C0B82C01C0B4
S1131670B92CA4FE0FC0FE01E80DF11D808180335A
S113168021F49A2D997EA92E09C0A2FE06C0B39416
S1131690B39404C08A2D867809F0B394A3FC11C0D6
S11316A0A0FE06C0B21488F4280C922C9B180EC01D
S11316B0B21460F4B60180E290E00E94C50BB394CA
S11316C0F7CFB21418F42B1802C0982C212CA4FEC6
S11316D010C0B60180E390E00E94C50BA2FE17C0C3
S11316E0A1FC03C088E790E002C088E590E0B60161
S11316F00CC08A2D867859F0A1FE02C08BE201C08D
S113170080E2A7FC8DE2B60190E00E94C50B89142B
S113171038F4B60180E390E00E94C50B9A94F7CFA9
S11317208A94F301E80DF11D8081B60190E00E94D6
S1131730C50B8110F5CF222009F442CEB60180E218
S113174090E00E94C50B2A94F6CFF601868197811A
S113175002C08FEF9FEF2B96E2E10C947B0CFC010F
S11317600590615070400110D8F7809590958E0FC8
S11317709F1F0895FC016150704001900110D8F73B
S1131780809590958E0F9F1F08950F931F93CF936D
S1131790DF93FB01238121FD03C08FEF9FEF2CC05A
S11317A022FF16C046815781248135814217530791
S11317B044F4A081B1819D012F5F3F4F3183208389
S11317C08C93268137812F5F3F4F3783268314C044
S11317D08B01EC01FB010084F185E02D0995892B37
S11317E0E1F6D80116968D919C911797019617965C
S11317F09C938E931697CE01DF91CF911F910F91F9
S11318000895FA01AA27283051F1203181F1E89492
S11318106F936E7F6E5F7F4F8F4F9F4FAF4FB1E0DF
S11318203ED0B4E03CD0670F781F891F9A1FA11DDA
S1131830680F791F8A1F911DA11D6A0F711D811DDB
S1131840911DA11D20D009F468943F912AE0269FA0
S113185011243019305D3193DEF6CF010895462FFF
S11318604770405D4193B3E00FD0C9F7F6CF462FE0
S11318704F70405D4A3318F0495D31FD4052419349
S113188002D0A9F7EACFB4E0A69597958795779506
S11318906795BA95C9F700976105710508959B018D
S11318A0AC010A2E06945795479537952795BA9516
S11318B0C9F7620F731F841F951FA01D08952F92EF
S11318C03F924F925F926F927F928F929F92AF92CC
S11318D0BF92CF92DF92EF92FF920F931F93CF9319
S11318E0DF93CDB7DEB7CA1BDB0B0FB6F894DEBFB0
S11318F00FBECDBF09942A88398848885F846E84D6
S11319007D848C849B84AA84B984C884DF80EE801F
S1131910FD800C811B81AA81B981CE0FD11D0FB628
S1131920F894DEBF0FBECDBFED010895F894FFCF4C
S113193001000F0010080400000002000000005322
S11319400000000000256400534554555020444FC6
S11319504E452E004C494748540054454D50000014
S113196044495354414E434500444F574E0055504B
S1071970004F4B00D5
S9030000FC
